:100000000217BDD0F0D0E0121826900106AB82AAEC
:1000100083121AA27F0112074B90FFFE121819904B
:100020000106AB82AA83121AA27F0112240490FF58
:0D003000FE12181902000A90FFFC0218478A
:10008000007F5068696C6F736F70686572202325FC
:100090006420656174696E6720666F722025642034
:1000A0007469636B73203A2D290A005068696C6F7C
:1000B000736F7068657220232564207468696E6BA5
:1000C000696E6720666F72202564207469636B73A4
:1000D000203A2D280A00000200020002000200025D
:1000E0000001000200030004000000040000000101
:1000F00000020003000000000000000000000000FB
:1001000000000000000000000000000000000000EF
:1001100000000000000000000000000000000000DF
:1001200000000000000000000000000000000000CF
:1001300000000000000000000000000000000000BF
:1001400000000000000000000000000000000000AF
:10015000000000000000000000000000000000009F
:10016000000000000000000000000000000000008F
:10017000000000000000000000000000000000007F
:10018000000000000000000000000000000000006F
:10019000000000000000000000000000000000005F
:1001A000000000000000000000000000000000004F
:1001B000000000000000000000000000000000003F
:1001C000000000000000000000000000000000002F
:1001D000000000000000000000000000000000001F
:1001E000000000000000000000000000000000000F
:1001F00000000000000000000000000000000000FF
:1002000000000000000000000000000000000000EE
:1002100000000000000000000000000000000000DE
:1002200000000000000000000000000000000000CE
:1002300000000000000000000000000000000000BE
:1002400000000000000000000000000000000000AE
:100250000204700206CF02145203D2000000000311
:10026000F100000000041000000000042F00000056
:1002700000000301000000D0F0D0E012182690002A
:1002800002E0FCA3E0FD7BB17A001219E9900002C4
:10029000EAF0A3EBF0900002E0FAA3E0FB121935BC
:1002A000EB4A70030202B19000027400F0A3747F65
:1002B000F0900002E0FCA3E0FD7BC87A00EBCDFBF0
:1002C000EACCFA1219F1EB2401FBEA3400FA90FFB0
:1002D000FC021847D0F0D0E01218269000821218C5
:1002E0001990FFFF121A937F0112047D90FFFE12F6
:1002F00018197F0012027790000512192A8D828C3E
:1003000083EAF0A3EBF090000712191F121AA290D3
:100310000004AB82AA83121AA290FFFF121A9390D4
:100320000005121A937F0412255790FFF81218192E
:1003300090000712191F121AA27F011206DC90FF0B
:10034000FE121819900005121A937F011208D89016
:10035000FFFE12181990FFFF121A937F01120580F9
:1003600090FFFE1218197F001202779000051219F3
:100370002A8D828C83EAF0A3EBF090000712191FFC
:10038000121AA290002DAB82AA83121AA290FFFF2C
:10039000121A93900005121A937F0412255790FFAA
:1003A000F812181990000712191F121AA27F0112D1
:1003B00006DC90FFFE121819900005121A937F01B7
:1003C0001208D890FFFE1218190202E190FF7A027B
:1003D0001847D0F0D0E01218267B007A00121AA23B
:1003E0007F011202D490FFFE12181990FFFC021830
:1003F00047D0F0D0E01218267B017A00121AA27FB3
:10040000011202D490FFFE12181990FFFC02184747
:10041000D0F0D0E01218267B027A00121AA27F01D7
:100420001202D490FFFE12181990FFFC021847D058
:10043000F0D0E01218267B037A00121AA27F011274
:1004400002D490FFFE12181990FFFC021847D0F05A
:10045000D0E01218261213217B047A00121AA27F10
:10046000011202D490FFFE12181990FFFC021847E7
:10047000D0F0D0E012182690FFFC021847D0F0D040
:10048000E0121826C2AF90FFFF1218EB900058AD93
:1004900082AC83C3EB33FBEA33FAED2BFDEC3AFC81
:1004A0009000001218DBEBFDEAFC7B027A001219C7
:1004B00057EB4A70030204E090FFFF1218EB900024
:1004C00076AD82AC83C3EB33FBEA33FAEB2DFBEA68
:1004D0003CFA121AA27F011207BD90FFFE121819F2
:1004E00090FFFF1218EB900062AD82AC83C3EB3338
:1004F000FBEA33FAED2BFDEC3AFC9000001218DB1E
:10050000900058AD82AC83C3EB33FBEA33FAED2B9A
:10051000FDEC3AFC9000001218DBC38D828C83A3A3
:10052000E09401F08D828C83E09400F090FFFF1244
:1005300018EB90006CAD82AC83C3EB33FBEA33FA6B
:10054000ED2BFDEC3AFC9000001218DB900058AD4A
:1005500082AC83C3EB33FBEA33FAED2BFDEC3AFCC0
:100560009000001218DBC38D828C83A3E09401F00D
:100570008D828C83E09400F0D2AF90FFFC0218478C
:10058000D0F0D0E0121826C2AF90FFFF1218EB9007
:100590000062AD82AC83C3EB33FBEA33FAED2BFD93
:1005A000EC3AFC9000001218DB900058AD82AC834E
:1005B000C3EB33FBEA33FAED2BFDEC3AFC90000081
:1005C0001218DBEB2401FBEA3400FA8D828C83EAFB
:1005D000F0A3EBF0EBFDEAFC7B027A00121943EB8F
:1005E0004A700302062890FFFF1218EB900062ADDC
:1005F00082AC83C3EB33FBEA33FAED2BFDEC3AFC20
:100600009000001218DB900076AD82AC83C3EB3310
:10061000FBEA33FAEB2DFBEA3CFA121AA27F011235
:10062000081C90FFFE12181990FFFF1218EB9000A3
:100630006CAD82AC83C3EB33FBEA33FAED2BFDECFC
:100640003AFC9000001218DB900058AD82AC83C3D6
:10065000EB33FBEA33FAED2BFDEC3AFC9000001291
:1006600018DBEB2401FBEA3400FA8D828C83EAF07C
:10067000A3EBF0EBFDEAFC7B027A00121943EB4A94
:1006800070030206C790FFFF1218EB90006CAD825A
:10069000AC83C3EB33FBEA33FAED2BFDEC3AFC9071
:1006A00000001218DB900076AD82AC83C3EB33FB05
:1006B000EA33FAEB2DFBEA3CFA121AA27F01120888
:1006C0001C90FFFE121819D2AF90FFFC021847D001
:1006D000F0D0E012182690FFFC021847D0F0D0E0CE
:1006E000121826C2AF900084E0FAA3E0FBEB4A7038
:1006F00003020709900080AB82AA83121AA27F012D
:100700001207BD90FFFE121819900086AB82AA83D3
:10071000121AA290FFFF121A937F02122D8590FFEA
:10072000FC1218199000847400F0A37401F090007A
:1007300082AB82AA83121AA27F0112081C90FFFECC
:10074000121819D2AF90FFFC021847D0F0D0E01277
:100750001826C2AF900084E0FAA3E0FB121935EB33
:100760004A700302077B900082AB82AA83121AA20E
:100770007F011207BD90FFFE12181990FFFF121A99
:1007800093900086AB82AA83121AA27F02122D8553
:1007900090FFFC1218199000847400F0A37400F00C
:1007A000900080AB82AA83121AA27F0112081C90CB
:1007B000FFFE121819D2AF90FFFC021847D0F0D0FC
:1007C000E01218269001B6E0FAA3E0FB9001B8EA27
:1007D000F0A3EBF090FFFF121A939001B6121A8269
:1007E0007F02120C3E90FFFC1218199001BAE0FA39
:1007F000A3E0FB9001B6EAF0A3EBF09001B6E0FCB9
:10080000A3E0FD9000001218DB9001BAEAF0A3EB20
:10081000F07F001213EA90FFFC021847D0F0D0E0FE
:1008200012182690FFFF12190D9000001218DBEB32
:100830004A70030208979001B6E0FAA3E0FB90012A
:10084000B8EAF0A3EBF09001BAAB82AA83121AA225
:100850009001B6121A827F02120C3E90FFFC121811
:100860001990FFFF12190D9000001218DB9001B6CD
:10087000EAF0A3EBF09001B6E0FCA3E0FD900000ED
:100880001218DB90FFFF12190D8D828C83EAF0A302
:10089000EBF07F001213EA90FFFC021847D0F0D073
:1008A000E01218267F00120C209001BAE0FAA3E0B3
:1008B000FBEB4A70030208CD9001BAAB82AA831207
:1008C0001AA27F01120D5590FFFE1218197F001217
:1008D0000C2F90FFFC021847D0F0D0E012182690A1
:1008E000000412181990FFFF1218EBEB4A60030284
:1008F00008FC7B007A0090FFF80218477F00120C7A
:100900002090000712192A7B007A008D828C83EADE
:10091000F0A3EBF09001BCE0FAA3E0FB900005121D
:10092000192A8D828C83EAF0A3EBF090000512184F
:10093000EBEB4A700302096390000512190DED24D8
:1009400004FDEC3400FC9000001218DB90FFFF1255
:10095000190D1219A2EB4A70030209637B017A0098
:100960000209677B007A00EB4A70030209E09000FD
:10097000051218EB90000712192A8D828C83EAF079
:10098000A3EBF090000512190D9000001218DB90F7
:10099000000512192A8D828C83EAF0A3EBF090FFF8
:1009A000FF12192A121AA8900000121A8C90000740
:1009B00012190DED2404FDEC3400FC900000121817
:1009C000DB121AAEEBCDFBEACCFAC3EB9DFBEA9C43
:1009D000FA121AAE8D828C83EAF0A3EBF002092B97
:1009E0009000051218EB9001B6E0FCA3E0FD8D82AB
:1009F0008C83EAF0A3EBF09001B6E0FAA3E0FBEB06
:100A00002404FBEA3400FA121AA290FFFF1218EB3A
:100A1000121AAE8D828C83EAF0A3EBF090000712DD
:100A200018EBEB4A7003020A439001B6E0FAA3E028
:100A3000FB90000712190D8D828C83EAF0A3EBF076
:100A4000020A539001B6E0FAA3E0FB9001BCEAF081
:100A5000A3EBF07B007A00121AA27F01120D5590D1
:100A6000FFFE1218197F00120C2F7B007A0090FFF6
:100A7000F8021847D0F0D0E012182690000412189F
:100A8000197F00120C2090FFFB12190D7B0C7A00CD
:100A90001219B2EB4A7003020B7F90FFFD1218EBA4
:100AA000EB4A7003020B2590FFFD1218EB7F00123A
:100AB000186A90000512192A8D828C83EAF0A3EB44
:100AC000F0EB4A6003020AF390FFFB1218EB90016F
:100AD00086AD82AC83C3EB33FBEA33FAEB2DFBEA42
:100AE0003CFA121AA27F011207BD90FFFE121819DC
:100AF000020B2290FFFB1218EB90019EAD82AC839B
:100B0000C3EB33FBEA33FAEB2DFBEA3CFA121AA2F1
:100B10009000051218EB121AAE8D828C83EAF0A3B6
:100B2000EBF0020B4D90FFFB1218EB900186AD82AB
:100B3000AC83C3EB33FBEA33FAEB2DFBEA3CFA124E
:100B40001AA27F011207BD90FFFE12181990FFFB39
:100B50001218EB90019EAD82AC83C3EB33FBEA33FA
:100B6000FAED2BFDEC3AFC9000001218DB90FFFF31
:100B700012190D8D828C83EAF0A3EBF0020B929098
:100B8000FFFF12190D7BFF7AFF8D828C83EAF0A3A1
:100B9000EBF07F00120C2F90FFF8021847D0F0D036
:100BA000E01218269001B6E0FCA3E0FD90000212CE
:100BB00018DB90FFFC021847D0F0D0E01218269006
:100BC00001B6E0FAA3E0FBEB2402FBEA3400FA12E0
:100BD0001AA290FFFF1218EB121AAE8D828C83EAD4
:100BE000F0A3EBF090FFFC021847D0F0D0E0121811
:100BF0002690FFFF1218EBEBF8E6FB7A0090FFFC63
:100C0000021847D0F0D0E012182690FFFD1218EB22
:100C1000EBF890FFFF1218EBEBF690FFFC02184781
:100C2000D0F0D0E0121826C2AF90FFFC021847D0D7
:100C3000F0D0E0121826D2AF90FFFC021847D0F097
:100C4000D0E012182690000412181990000712190B
:100C50002A7B007A008D828C83EAF0A3EBF090FF70
:100C6000FD12190D9000001218DB90000512192AD0
:100C70008D828C83EAF0A3EBF09000051218EBEB69
:100C80004A7003020CC290000512190DED2402FDFA
:100C9000EC3400FC900000121A8C90FFFF12190D2A
:100CA000ED2402FDEC3400FC9000001218DB121A57
:100CB000AE1219A2EB4A7003020CC27B017A000249
:100CC0000CC67B007A00EB4A7003020D0090000511
:100CD0001218EB90000712192A8D828C83EAF0A378
:100CE000EBF090000512190D9000001218DB900037
:100CF0000512192A8D828C83EAF0A3EBF0020C799D
:100D00009000051218EB90FFFF12190D8D828C8355
:100D1000EAF0A3EBF09000071218EBEB4A70030225
:100D20000D3A90FFFF1218EB90000712190D8D82FB
:100D30008C83EAF0A3EBF0020D4F90FFFF1218EB4B
:100D400090FFFD12190D8D828C83EAF0A3EBF090D9
:100D5000FFF8021847D0F0D0E01218269001B6E054
:100D6000FAA3E0FB9001B8EAF0A3EBF090FFFF12CA
:100D700018EBEB4A7003020D9090FFFF121A93904C
:100D800001B6121A827F02120C3E90FFFC12181953
:100D90009001BAE0FAA3E0FB9001B6EAF0A3EBF011
:100DA0009001B6E0FCA3E0FD9000001218DB90017A
:100DB000BAEAF0A3EBF07F001213EA90FFFC0218EE
:100DC00047D0F0D0E01218269001BCE0FAA3E0FB77
:100DD000EB4A7003020EC59001BCE0FCA3E0FDED00
:100DE0002404FDEC3400FC9000001218DBC3EB94EB
:100DF00001FBEA9400FA8D828C83EAF0A3EBF012F7
:100E00001935EB4A7003020EC590000412181990B0
:100E100001BCE0FAA3E0FB90000712192A8D828C36
:100E200083EAF0A3EBF09000071218EBEB4A700393
:100E3000020E5890000712190DED2404FDEC340049
:100E4000FC9000001218DB121935EB4A7003020EF9
:100E5000587B017A00020E5C7B007A00EB4A70033B
:100E6000020EB19000071218EB90000512192A8D9E
:100E7000828C83EAF0A3EBF090000712190D90002A
:100E8000001218DB90000712192A8D828C83EAF079
:100E9000A3EBF09001BAAB82AA83121AA2900005CC
:100EA000121A937F02120C3E90FFFC121819020EC8
:100EB000269000071218EB9001BCEAF0A3EBF0902B
:100EC000FFFC1218197B017A0090FFFC02184712F0
:100ED00012820DC10001D0F0D0E012182690000659
:100EE0001218197B017A00121AA27B407A00121A9A
:100EF000A27F02121E2F90FFFC12181990000912F7
:100F0000192A8D828C83EAF0A3EBF0900009121865
:100F1000EBEB2402FBEA3400FA121AA290FFFD1256
:100F200018EBEB4A7003020F3290FFFD1218EB0230
:100F30000F367B407A00121AAE8D828C83EAF0A3C2
:100F4000EBF090FFFF1218EBEB4A7003020F589082
:100F5000FFFF1218EB020F609001D6E0FAA3E0FB4E
:100F600090000512192A8D828C83EAF0A3EBF07BA6
:100F7000017A00121AA2900005121A937F02121E23
:100F80002F90FFFC12181990000712192A8D828CDD
:100F900083EAF0A3EBF090000912190DED2406FD91
:100FA000EC3400FC7B2A7A008D828C83EAF0A3EB80
:100FB000F09000091218EBEB2410FBEA3400FA124F
:100FC0001AA29000091218EBEB2412FBEA3400FA83
:100FD000121AA29000071218EB121AAE8D828C839F
:100FE000EAF0A3EBF0121AAE8D828C83EAF0A3EB49
:100FF000F09000091218EBEB2420FBEA3400FA12FF
:101000001AA290FFFB12190D7B007A01EBCDFBEACF
:10101000CCFA1219E1121AA290FFFB12190D7B00F3
:101020007A011219E9121AAEEB2DFBEA3CFA121AF8
:10103000AE8D828C83EAF0A3EBF090000912190DBB
:10104000ED2422FDEC3400FC7B007A108D828C8331
:10105000EAF0A3EBF09001BAAB82AA83121AA29035
:101060000009121A937F02120C3E90FFFC1218190D
:1010700090FFF6021847D0F0D0E012182602107D3B
:1010800090FFFC021847D0F0D0E012182690000222
:10109000121819901076AB82AA83121AA27B017AD9
:1010A00000121AA27B007A00121AA27F03120ED637
:1010B00090FFFA1218197B017A00121AA27B407A6B
:1010C00000121AA27F02121E2F90FFFC1218199014
:1010D000000512192A8D828C83EAF0A3EBF09000B0
:1010E0000512190DED2402FDEC3400FC7B407A0062
:1010F0008D828C83EAF0A3EBF09000051218EB9040
:1011000001B6EAF0A3EBF07F001213CE90FFFA02D3
:101110001847D0F0D0E012182690FFFF1218EB907D
:10112000019EAD82AC83C3EB33FBEA33FAEB2DFBBC
:10113000EA3CFA121AA290FFFD1218EB121AAE8DB9
:10114000828C83EAF0A3EBF090FFFD1218EBEB4AE0
:10115000700302118390FFFF1218EB900186AD829D
:10116000AC83C3EB33FBEA33FAED2BFDEC3AFC9096
:1011700000001218DBEB4A70030211837B017A0036
:101180000211877B007A00EB4A700302127C90FF09
:10119000FF12190D7B017A00121957EB4A700302F6
:1011A000121C90FFFF1218EB900186AD82AC83C336
:1011B000EB33FBEA33FAED2BFDEC3AFC9000001226
:1011C00018DB9001B8EAF0A3EBF090FFFF1218EBE8
:1011D000900186AD82AC83C3EB33FBEA33FAEB2D8F
:1011E000FBEA3CFA121AA29001B8E0FCA3E0FD90E1
:1011F00000001218DB121AAE8D828C83EAF0A3EB8A
:10120000F09001BAAB82AA83121AA29001B8121A06
:10121000827F02120C3E90FFFC1218199001BAE076
:10122000FAA3E0FBEB4A700302127C9001B6E0FAED
:10123000A3E0FB9001B8EAF0A3EBF09001BAAB8217
:10124000AA83121AA29001B6121A827F02120C3ED1
:1012500090FFFC1218199001BAE0FAA3E0FB90018C
:10126000B6EAF0A3EBF09001B6E0FCA3E0FD90003D
:10127000001218DB9001BAEAF0A3EBF090FFFC0239
:101280001847C2AF85822585832485A021F5228554
:10129000F023D00AD009C0D075D0009001B6E0FA92
:1012A000A3E0FBEB2407FBEA3400FA8B828A83E598
:1012B00081F0A37810E6F0A3E808B581F8850A83E9
:1012C000850982E493FA740193FB12186A121AA238
:1012D000850A83850982740293FA740393FB121AB8
:1012E000A27F0212111290FFFC1218199001B6E0B1
:1012F000FAA3E0FBEB2407FBEA3400FA8B828A8333
:10130000E0F581A37810E0F6A3E808B581F885251B
:10131000828524838521A0E5228523F0D0D0D2AF19
:1013200032D0F0D0E0121826750803E44508602496
:1013300090025085830985820A901348C082C08339
:10134000850983850A82E473850983850A82A3A3BC
:10135000A3D508DF750805E4450860439002598568
:10136000830985820AE493FA740193FB121AA2742A
:101370000293FA740393FB121AA2740493FA74058D
:1013800093FB121AA27F03120ED690FFFA121819BD
:10139000850983850A82A3A3A3A3A3A3D508C0902C
:1013A0000186AB82AA83EB2402FBEA3400FAEBFD50
:1013B000EAFC9001BAE0FAA3E0FB8D828C83EAF0AC
:1013C000A3EBF07F0012108690FFFC021847D0F0CC
:1013D000D0E0121826758921758855758DF375989A
:1013E0005075A89290FFFC021847858225858324BA
:1013F00085A021F52285F023C0D075D0009001B8DA
:10140000E0FAA3E0FBEB2407FBEA3400FA8B828AC4
:1014100083E581F0A37810E6F0A3E808B581F890A1
:1014200001B6E0FAA3E0FBEB2407FBEA3400FA8BF9
:10143000828A83E0F581A37810E0F6A3E808B581FD
:10144000F88525828524838521A0E5228523F0D097
:10145000D032D0F0D0E01218267B017A00121AA206
:101460007B807A00121AA27F02121E2F90FFFC12BC
:1014700018199001BEEAF0A3EBF07B017A00121A72
:10148000A27B807A00121AA27F02121E2F90FFFC0C
:101490001218199001C0EAF0A3EBF090FFFC0218BB
:1014A00047D0F0D0E0121826C2AF900002121819EF
:1014B0009001CAE0FAA3E0FBEB2401FBEA3400FA56
:1014C000EBFDEAFC7B807A00EBCDFBEACCFA12194B
:1014D000F190000512192A8D828C83EAF0A3EBF0BB
:1014E000EBFDEAFC9001C8E0FAA3E0FB121943EB24
:1014F0004A700302150B9001D0AB82AA83121AA284
:101500007F011207BD90FFFE1218199001C8E0FA82
:10151000A3E0FB9001CAE0FCA3E0FD121943EB4AF3
:10152000700302153E90FFFF121A937F011217A756
:1015300090FFFE121819D2AF90FFFA0218479000E0
:10154000051218EB9001CAEAF0A3EBF09001CAE093
:10155000FAA3E0FB9001C0E0FCA3E0FDEB2DFBEA69
:101560003CFA121AA290FFFF1218EB121AAE8D82EB
:101570008C83EBF090FFFF1218EBD2AF90FFFA02D2
:101580001847D0F0D0E0121826C2AF90000212180F
:10159000199001C2E0FAA3E0FB9001C4E0FCA3E0D3
:1015A000FD121943EB4A70030215C09001CEAB82C5
:1015B000AA83121AA27F011207BD90FFFE1218190A
:1015C0009001C2E0FAA3E0FB9001BEE0FCA3E0FDC5
:1015D000ED2BFDEC3AFC9000001218A290000512D1
:1015E000192A8D828C83EAF0A3EBF09001C2E0FA15
:1015F000A3E0FBEB2401FBEA3400FAEBFDEAFC7B01
:10160000807A00EBCDFBEACCFA1219F19001C2EA24
:10161000F0A3EBF09000051218EBD2AF90FFFA02A6
:101620001847D0F0D0E0121826309815E599C298E6
:10163000FBE4FA121AA27F0112165D90FFFE121847
:101640001930990CC299121701EA30E703EBF599AA
:1016500090FFFC02184712128216220004D0F0D02C
:10166000E01218269000021218199001C4E0FAA3A3
:10167000E0FBEB2401FBEA3400FAEBFDEAFC7B80A3
:101680007A00EBCDFBEACCFA1219F19000051219A1
:101690002A8D828C83EAF0A3EBF0EBFDEAFC90014B
:1016A000C2E0FAA3E0FB121957EB4A70030216F7E7
:1016B0009000051218EB9001BEE0FCA3E0FDEB2DBD
:1016C000FBEA3CFA121AA290FFFF1218CC121AAED3
:1016D0008D828C83EBF09001CEAB82AA83121AA28A
:1016E0007F0112081C90FFFE12181990FFFF1218BC
:1016F000CC90FFFA0218477BFF7AFF90FFFA02189E
:1017000047D0F0D0E012182690000412181990016A
:10171000C8E0FAA3E0FB9001CAE0FCA3E0FD1219C7
:1017200057EB4A700302179D9001C8E0FAA3E0FB53
:101730009001C0E0FCA3E0FDED2BFDEC3AFC900035
:10174000001218A290000512192A8D828C83EAF0EB
:10175000A3EBF09001C8E0FAA3E0FBEB2401FBEA65
:101760003400FAEBFDEAFC7B807A00EBCDFBEACC9F
:10177000FA1219F19001C8EAF0A3EBF09001D0AB96
:1017800082AA83121AA27F0112081C90FFFE12186F
:10179000199000051218EB90FFF80218477BFF7AAA
:1017A000FF90FFF8021847D0F0D0E0121826900002
:1017B000081218EBEBF59990FFFC02184775A8008A
:1017C00075812575D010F1D8F51985F01885191B8C
:1017D00085181A12044E80E57AD07B02900080783A
:1017E0000275A0001B740093F2A308E8700205A024
:1017F0001AEA600280EFEB70EB9001D27402F0A362
:1018000074D8F0A374FFF0A374FFF0A37401F0A3E5
:101810007400F075F00174D822E5822519F519E5F8
:10182000833518F51822851982851883A3F0A3E55E
:10183000F0F0A3E51AF0A3E51BF085191B85181A33
:1018400085821985831822E5822519F519E58335E6
:1018500018F518851B82851A83A3E0C0E0A3E0C0B9
:10186000E0A3E0F51AA3E0F51B22EBC0E0EAC0E03C
:1018700022D0E0F583D0E0F582E493700574019303
:10188000601DC37403939B70107402939A700A7462
:101890000193C0E0E493C0E022A3A3A3A380DA7481
:1018A0000273E5822DF582E5833CF583E0FB7A0047
:1018B00030E7027AFF22E582251BF582E583351A9F
:1018C000F583E0FB7A0030E7027AFF22E582251BF0
:1018D000F582E583351AF583E0FB22E5822DF5825A
:1018E000E5833CF583E0FAA3E0FB22E582251BF5C6
:1018F00082E583351AF583E0FAA3E0FB22E5822D29
:10190000F582E5833CF583E0FCA3E0FD22E582253A
:101910001BF582E583351AF583E0FCA3E0FD22E5A3
:1019200082251BFBE583351AFA22E582251BFDE59E
:1019300083351AFC22EB4A70057B017A00227B007A
:101940007A0022C3EB9D600302193EEA9C60030209
:10195000193E7B017A0022121943EB6401FB22EA53
:101960006C20E703021993EC30E7030219390219DE
:101970003E12195FEB6401FB22EA6C20E7030219B7
:10198000B2EC30E70302193902193E121979EB64FF
:1019900001FB22C3ED9BEC9A400302193E7B017AC6
:1019A0000022121993EB6401FB221219B2EB6401BD
:1019B000FB22C3ED9BEC9A40030219437B017A00A2
:1019C00022EBFEEDFBECFAC3EB33FBEA33FADEF776
:1019D00022EBFEEDFBECFAC3EB13FBEA13FADEF7A6
:1019E00022121B14AB1DAA1C22121AE0AB1FAA1E46
:1019F00022121B14AB1FAA1E22ECC0E0EDC0E012A5
:101A00001B821219E920000A20010AE51F851EF039
:101A100080082001F6D202121B6AFBAAF0D0E0FD7A
:101A2000D0E0FC22ECC0E0EDC0E0121B821219E114
:101A3000E51DF51FE51CF51E20000A20010AE51F23
:101A4000851EF080082001F6D202121B6AFBAAF064
:101A5000D0E0FDD0E0FC22ECC0E0EDC0E0121B8243
:101A60001219E120000A20010AE51F851EF08008F6
:101A70002001F6D202121B6AFBAAF0D0E0FDD0E0F2
:101A8000FC22E0F5F0A3E0C5F0021ACD8D828C8334
:101A9000021A82E582251BF582E583351AF5830259
:101AA0001A82EA8BF0021ACDEC8DF0021ACDC3E552
:101AB000199402F519E5189400F51885198285180E
:101AC00083A3E0FCA3E0FD22EFFB7A0022851982CC
:101AD000851883A3F0A3E5F0F08582198583182289
:101AE000ED8BF0A4F51FA8F0ED8AF0A428F51EE414
:101AF00035F0F51DEC8BF0A4FBA8F0EC8AF0A428DF
:101B0000FAE435F0F8E51E2BF51EE51D3AF51DE467
:101B100038F51C22751F00751E00751D00751C0010
:101B20007E10C3EB33FBEA33FAE51F33F51FE51EE6
:101B300033F51EC3E51F9DF8E51E9CF9B3500488DC
:101B40001F891EE51D33F51DE51C33F51CDED32270
:101B500020E708C202F51F85F01E22D202F42401FC
:101B6000F51FE5F0F43400F51E22200206E51F857E
:101B70001EF022E51FF42401F5F0E51EF43400C543
:101B8000F022EB8AF0121B50C200300206D200ABEA
:101B90001FAA1EED8CF0121B50C201300206D201AA
:101BA000AD1FAC1E22D0F0D0E01218269000041217
:101BB000181990FFFF12190D9000001218A2121AA6
:101BC000A27F0112206690FFFE121819EB4A7003E3
:101BD000021BF390FFFF12192A9000001218DBEB92
:101BE0002401FBEA3400FA8D828C83EAF0A3EBF047
:101BF000021BB290000712192A7B017A008D828C99
:101C000083EAF0A3EBF090FFFF12190D9000001291
:101C100018A2021C4890000712192A7BFF7AFF8D38
:101C2000828C83EAF0A3EBF090FFFF12192A900058
:101C3000001218DBEB2401FBEA3400FA8D828C835E
:101C4000EAF0A3EBF0021C551218711C15002D1CB4
:101C500028002B000090000512192A7B007A008DC5
:101C6000828C83EAF0A3EBF090FFFF12190D900035
:101C7000001218A2121AA27F01121FD090FFFE12AA
:101C80001819EB4A7003021CEC9000051218EB7D4A
:101C90000A7C001219F9121AA290FFFF12192A9059
:101CA00000001218DB8D828C83A3E02401F08D826A
:101CB0008C83E03400F0EBFDEAFC9000001218A2E7
:101CC000121AAEED2BFDEC3AFC7B307A00EBCDFB2B
:101CD000EACCFAC3EB9DFBEA9CFA90000512192AA4
:101CE0008D828C83EAF0A3EBF0021C689000051251
:101CF00018EB90000712190D1219F990FFF802184D
:101D000047D0F0D0E01218269000021218197B017B
:101D10007A00121AA27F01121DAE90FFFE1218194E
:101D200090FFFD12190D121993EB4A7003021DA4C6
:101D30007F00120C209001D2E0FAA3E0FB90000596
:101D400012192A8D828C83EAF0A3EBF090FFFD122A
:101D500018EB9001D2E0FCA3E0FDEB2DFBEA3CFA8E
:101D60009001D2EAF0A3EBF07F00120C2F90FFFF5E
:101D70001218EBEB4A7003021D98900005121A939B
:101D80007B007A00121AA290FFFD121A937F0312B1
:101D900023A090FFFA1218199000051218EB90FF7B
:101DA000FA0218477B007A0090FFFA021847D0F039
:101DB000D0E01218269000021218197F00120C2091
:101DC0009001D2E0FAA3E0FB9001D4E0FCA3E0FD97
:101DD000121993EB4A7003021DF090000512192AA4
:101DE0007B007A008D828C83EAF0A3EBF0021E1E4A
:101DF0009001D2E0FCA3E0FD9001D4E0FAA3E0FB67
:101E0000C3EB9DFBEA9CFAEB2401FBEA3400FA9059
:101E1000000512192A8D828C83EAF0A3EBF07F0073
:101E2000120C2F9000051218EB90FFFA021847D001
:101E3000F0D0E012182690FFFF1218EB90FFFD1271
:101E4000190D1219E9121AA27B017A00121AA27F47
:101E500002121D0190FFFC12181990FFFC02184796
:101E6000EB23FB121E6EFAEB04121E6EFB22B4FF74
:101E7000037404220483220004000400040004000C
:101E8000040004000400040004010401040104012E
:101E90000401040004000400040004000400040021
:101EA0000400040004000400040004000400040012
:101EB00004000400040004014000D000D000D00061
:101EC000D000D000D000D000D000D000D000D00092
:101ED000D000D000D000D00459045904590459044A
:101EE000590459045904590459045900D000D00028
:101EF000D000D000D000D000D006530653065306C1
:101F00005306530653025302530253025302530221
:101F10005302530253025302530253025302530219
:101F20005302530253025302530253025300D00090
:101F3000D000D000D000D000D00473047304730428
:101F400073047304730073007300730073007300F1
:101F500073007300730073007300730073007300E9
:101F60007300730073007300730073007300D0007C
:101F7000D000D000D000D0F0D0E012182690FFFFA3
:101F80001218EB121E60EB5401FBEA5400FA90FFAA
:101F9000FC021847D0F0D0E012182690FFFF12186C
:101FA000EB121E60EB5402FBEA5400FA90FFFC02B5
:101FB0001847D0F0D0E012182690FFFF1218EB124D
:101FC0001E60EB5404FBEA5400FA90FFFC02184731
:101FD000D0F0D0E012182690FFFF1218EB121E600E
:101FE000EB5408FBEA5400FA90FFFC021847D0F0CB
:101FF000D0E012182690FFFF1218EB121E60EB546F
:1020000010FBEA5400FA90FFFC021847D0F0D0E031
:1020100012182690FFFF1218EB121E60EB5420FBE3
:10202000EA5400FA90FFFC021847D0F0D0E01218F2
:102030002690FFFF1218EB121E60EB5440FBEA548F
:1020400000FA90FFFC021847D0F0D0E0121826905A
:10205000FFFF1218EB121E60EB5480FBEA5400FAEB
:1020600090FFFC021847D0F0D0E012182690FFFF36
:102070001218EB121E60EB5400FBEA5401FA90FFB9
:10208000FC021847D0F0D0E012182690FFFF12187B
:10209000EB121E60EB5400FBEA5402FA90FFFC02C4
:1020A0001847D0F0D0E012182690FFFF1218EB125C
:1020B0001E60EB5400FBEA5404FA90FFFC02184740
:1020C000D0F0D0E012182690000412181990FFFFEB
:1020D0001218EB90000512192A8D828C83EAF0A366
:1020E000EBF090FFFD1218EB90000712192A8D8279
:1020F0008C83EAF0A3EBF0EA20E70302212190FFB2
:10210000FD1218EBEBF4FBEAF4FAEB2401FBEA34E2
:1021100000FA90FFFD12192A8D828C83EAF0A3EB5E
:10212000F090000512192A9000001218DB8D828CA5
:1021300083A3E02401F08D828C83E03400F0121A36
:10214000A290FFFD12190D7B0A7A00EBCDFBEACCC1
:10215000FA121A57EB2430FBEA3400FA121AAE8D49
:10216000828C83EBF090FFFD12190D7B0A7A00EB55
:10217000CDFBEACCFA121A2490FFFD12192A8D82A7
:102180008C83EAF0A3EBF0EA20E7044B7003022112
:10219000940221219000071218EBEA20E7030221A4
:1021A000CC90000512192A9000001218DB8D828C49
:1021B00083A3E02401F08D828C83E03400F0EBFDFA
:1021C000EAFC7B2D7A008D828C83EBF09000051267
:1021D000190D7B007A008D828C83EBF090FFFF124B
:1021E0001A937F0112246E90FFFE12181990FFF8C7
:1021F000021847D0F0D0E0121826900004121819E7
:1022000090FFFD1218EB90000712192A8D828C8323
:10221000EAF0A3EBF090FFFF12192A121AA890001F
:10222000001218DBEBFDEAFC7B017A001219D112D7
:102230001AAE8D828C83EAF0A3EBF090FFFB1219AB
:102240000D7B017A00EB5DFBEA5CFA900005121948
:102250002A8D828C83EAF0A3EBF090FFFB12190D1C
:102260007B017A001219D1EBFDEAFC7BFF7A7FEB50
:102270005DFBEA5CFA90FFFB12192A8D828C83EADF
:10228000F0A3EBF090FFFF12190D90FFFB1218EB7B
:10229000121A57EBFDEAFC7B017A001219C1121ADF
:1022A000A29000051218EB121AAEEB2DFBEA3CFAD5
:1022B00090000712190D8D828C83EBF090000712AD
:1022C000190D9000001218A2EBFDEAFC7B0A7A00BF
:1022D00012195FEB4A70030223019000071218EBFA
:1022E000121AA2EBFDEAFC9000001218A2EB2430B7
:1022F000FBEA3400FA121AAE8D828C83EBF00223D3
:10230000259000071218EB121AA2EBFDEAFC9000D0
:10231000001218A2EB2437FBEA3400FA121AAE8D31
:10232000828C83EBF090000712192A90000012189B
:10233000DBEB2401FBEA3400FA8D828C83EAF0A304
:10234000EBF090FFFB12192A121AA8900000121A43
:102350008C90FFFF1218EB121AAEEBCDFBEACCFA11
:10236000121A24121AAE8D828C83EAF0A3EBF0EBE2
:102370004A700302237902223B90000712190D7B59
:10238000007A008D828C83EBF090FFFD121A937F10
:102390000112246E90FFFE12181990FFF8021847E0
:1023A000D0F0D0E012182690FFFF12192A900000FA
:1023B0001218DBC38D828C83A3E09401F08D828C94
:1023C00083E09400F0EB4A70030223FE90FFFB12BF
:1023D000192A9000001218DB8D828C83A3E024015F
:1023E000F08D828C83E03400F0121AA290FFFD126F
:1023F00018EB121AAE8D828C83EBF00223A790FFAC
:10240000FC021847D0F0D0E012182690FFFF1219F6
:102410000D9000001218A2EB4A700302245690FFA0
:10242000FF12192A9000001218DB8D828C83A3E022
:102430002401F08D828C83E03400F0EBFDEAFC9007
:1024400000001218A2121AA27F011214A190FFFE1E
:1024500012181902240B7B0A7A00121AA27F0112A9
:1024600014A190FFFE12181990FFFC021847D0F03B
:10247000D0E012182690000412181990FFFF121ACB
:10248000937F01122E0D90FFFE12181990FFFF127C
:10249000190DED2BFDEC3AFC7B017A00EBCDFBEA4C
:1024A000CCFAC3EB9DFBEA9CFA90000712192A8D27
:1024B000828C83EAF0A3EBF09000071218EB90FFF8
:1024C000FF12190D121993EB4A700302255190FF68
:1024D000FF12190D9000001218A290000512192A7F
:1024E0008D828C83EAF0A3EBF090FFFF12192A9003
:1024F00000001218DB8D828C83A3E02401F08D8212
:102500008C83E03400F0121AA290000712190D908B
:1025100000001218A2121AAE8D828C83EBF090008C
:102520000712192A9000001218DBC38D828C83A336
:10253000E09401F08D828C83E09400F0121AA29056
:1025400000051218EB121AAE8D828C83EBF0022478
:10255000B890FFF8021847D0F0D0E012182690008B
:102560002712181990002212192A7B007A008D82F6
:102570008C83EAF0A3EBF0121AC890FFFF12192A1D
:10258000C3EB33FBEA33FAEBCDFBEACCFAC3EB9DAA
:10259000FBEA9CFAEB2402FBEA3400FA90002A12D0
:1025A000192A8D828C83EAF0A3EBF090002A12198D
:1025B0002A9000001218DB8D828C83A3E02402F0A5
:1025C0008D828C83E03400F0EBFDEAFC9000001279
:1025D00018DB90000512192A8D828C83EAF0A3EB98
:1025E000F090002A12192A9000001218DB8D828CBC
:1025F00083A3E02402F08D828C83E03400F0EBFDB5
:10260000EAFC9000001218DB90001A12192A8D8241
:102610008C83EAF0A3EBF090001A12190D900000E1
:102620001218A2EB4A7003022D6990001A12190DBC
:102630009000001218A2EBFDEAFC7B257A0012192B
:1026400057EB4A70030226BB90000512192A90002E
:10265000001218DB8D828C83A3E02401F08D828C24
:1026600083E03400F0121AA290001A12192A900086
:10267000001218DB8D828C83A3E02401F08D828C04
:1026800083E03400F0EBFDEAFC9000001218A21287
:102690001AAE8D828C83EBF090002212192A9000E2
:1026A000001218DBEB2401FBEA3400FA8D828C83E4
:1026B000EAF0A3EBF00226170226D890001A1219AE
:1026C0002A9000001218DBEB2401FBEA3400FA8D9B
:1026D000828C83EAF0A3EBF090001A12190D90009F
:1026E000001218A2EBFDEAFC7B257A00121943EBDD
:1026F0004A700302276690000512192A9000001202
:1027000018DB8D828C83A3E02401F08D828C83E022
:102710003400F0121AA290001A12192A9000001226
:1027200018DB8D828C83A3E02401F08D828C83E002
:102730003400F0EBFDEAFC9000001218A2121AAE71
:102740008D828C83EBF090002212192A90000012E7
:1027500018DBEB2401FBEA3400FA8D828C83EAF06B
:10276000A3EBF002261790001A12190D9000001228
:1027700018A2EBFDEAFC7B2D7A00121943EB4A709C
:10278000030227B790002612192A7B017A008D8256
:102790008C83EAF0A3EBF090001A12192A90000043
:1027A0001218DBEB2401FBEA3400FA8D828C83EAF9
:1027B000F0A3EBF00227CA90002612192A7B007AB8
:1027C000008D828C83EAF0A3EBF090001A12190DB1
:1027D0009000001218A2EBFDEAFC7B307A0012197F
:1027E00043EB4A70030227FE90002412192A7B3023
:1027F0007A008D828C83EAF0A3EBF002281190001E
:102800002412192A7B207A008D828C83EAF0A3EBB4
:10281000F090001A12190D9000001218A2121AA2BC
:102820007F01121FD090FFFE121819EB4A700302AD
:1028300028B090001A12192A9000001218DB8D821D
:102840008C83A3E02401F08D828C83E03400F012AD
:102850001AA27F01121BA590FFFE12181990001CEE
:1028600012192A8D828C83EAF0A3EBF090001A12E1
:10287000190D9000001218A2121AA27F01121FD087
:1028800090FFFE121819EB4A70030228AD90001A4F
:1028900012192A9000001218DBEB2401FBEA340025
:1028A000FA8D828C83EAF0A3EBF002286C0228C335
:1028B00090001C12192A7B007A008D828C83EAF02A
:1028C000A3EBF090001A12190D9000001218A2EB61
:1028D000FDEAFC7B2E7A00121943EB4A70030229B1
:1028E0005F90001A12192A9000001218DBEB2401E5
:1028F000FBEA3400FA8D828C83EAF0A3EBF0121A23
:10290000A27F01121BA590FFFE12181990001E1243
:10291000192A8D828C83EAF0A3EBF090001A121929
:102920000D9000001218A2121AA27F01121FD0905F
:10293000FFFE121819EB4A700302295C90001A126C
:10294000192A9000001218DBEB2401FBEA3400FA8C
:102950008D828C83EAF0A3EBF002291B022972908E
:10296000001E12192A7B007A008D828C83EAF0A364
:10297000EBF090002A12192A9000001218DB8D82C9
:102980008C83A3E02402F08D828C83E03400F0EB92
:10299000FDEAFC9000001218DB90002812192A8D25
:1029A000828C83EAF0A3EBF090000712191F9000CD
:1029B0001812192A8D828C83EAF0A3EBF090001A8A
:1029C00012192A9000001218DB8D828C83A3E02458
:1029D00001F08D828C83E03400F0EBFDEAFC900086
:1029E000001218A2022AF09000281218EB9000079B
:1029F00012192A8D828C83EBF090000812192A7B21
:102A0000007A008D828C83EBF0022B149000281248
:102A100018EB90001812192A8D828C83EAF0A3EB30
:102A2000F0022B14900028121A9390000712191F1D
:102A3000121AA27F021220C090FFFC121819022B5A
:102A400014900028121A9390000712191F121AA24C
:102A50007B027A00121AA27F031221F390FFFA126E
:102A60001819022B14900028121A939000071219BB
:102A70001F121AA27B087A00121AA27F031221F3F6
:102A800090FFFA121819022B14900028121A939032
:102A9000000712191F121AA27B0A7A00121AA27FCB
:102AA000031221F390FFFA121819022B1490002838
:102AB000121A9390000712191F121AA27B107A00A3
:102AC000121AA27F031221F390FFFA121819022B97
:102AD0001490000512190D7B007A008D828C83EB17
:102AE000F09000221218EB90FFD5021847022B1429
:102AF00012187129E700632A0C00732A2400642A43
:102B00004100622A65006F2A8900752AAD007800AD
:102B100000022AD1900018121A937F01122E0D90F4
:102B2000FFFE12181990002012192A8D828C83EA58
:102B3000F0A3EBF090001E1218EBEB4A7003022B8F
:102B40005E9000201218EB90001E12190D12195FF2
:102B5000EB4A7003022B5E7B017A00022B627B0042
:102B60007A00EB4A7003022B7E90001E1218EB9045
:102B7000002012192A8D828C83EAF0A3EBF09000DA
:102B8000201218EB90001C12190D12198BEB4A70D1
:102B900003022BB990002012190D90001C1218EBA3
:102BA000C3EB9DFBEA9CFA90001C12192A8D828CC3
:102BB00083EAF0A3EBF0022BCC90001C12192A7BC5
:102BC000007A008D828C83EAF0A3EBF0900026124D
:102BD00018EB121935EB4A7003022C5090001C12AE
:102BE000192A9000001218DBC38D828C83A3E09415
:102BF00001F08D828C83E09400F0EB4A7003022C8C
:102C00005090000512192A9000001218DB8D828C5A
:102C100083A3E02401F08D828C83E03400F0121A4B
:102C2000A29000241218EB121AAE8D828C83EBF066
:102C300090002212192A9000001218DBEB2401FBED
:102C4000EA3400FA8D828C83EAF0A3EBF0022BDCED
:102C500090002012192A9000001218DBC38D828C7C
:102C600083A3E09401F08D828C83E09400F0EB4A22
:102C70007003022CE590000512192A90000012182A
:102C8000DB8D828C83A3E02401F08D828C83E03481
:102C900000F0121AA290001812192A9000001218BF
:102CA000DB8D828C83A3E02401F08D828C83E03461
:102CB00000F0EBFDEAFC9000001218A2121AAE8D93
:102CC000828C83EBF090002212192A9000001218D7
:102CD000DBEB2401FBEA3400FA8D828C83EAF0A35B
:102CE000EBF0022C509000261218EBEB4A70030216
:102CF0002D6690001C12192A9000001218DBC38D5B
:102D0000828C83A3E09401F08D828C83E09400F0A8
:102D1000EB4A7003022D6690000512192A900000FC
:102D20001218DB8D828C83A3E02401F08D828C83CA
:102D3000E03400F0121AA29000241218EB121AAE1E
:102D40008D828C83EBF090002212192A90000012E1
:102D500018DBEB2401FBEA3400FA8D828C83EAF065
:102D6000A3EBF0022CF202261790000512190D7B3E
:102D7000007A008D828C83EBF09000221218EB9089
:102D8000FFD5021847D0F0D0E012182690000212AA
:102D9000181990FFFD1218EB90000512192A8D8268
:102DA0008C83EAF0A3EBF090FFFD12192A9000004B
:102DB0001218DB8D828C83A3E02401F08D828C833A
:102DC000E03400F0121AA290FFFF12192A900000BE
:102DD0001218DB8D828C83A3E02401F08D828C831A
:102DE000E03400F0EBFDEAFC9000001218A2121A89
:102DF000AE8D828C83EBF0EB4A7003022E01022D24
:102E0000A79000051218EB90FFFA021847D0F0D0F7
:102E1000E012182690000212181990FFFF1218EB0A
:102E2000C3EB9401FBEA9400FA90000512192A8D75
:102E3000828C83EAF0A3EBF090000512192A90002F
:102E4000001218DBEB2401FBEA3400FA8D828C833C
:102E5000EAF0A3EBF0EBFDEAFC9000001218A2EB05
:102E60004A7003022E69022E3890FFFF12190D904E
:102E700000051218EBC3EB9DFBEA9CFA90FFFA02E7
:022E80001847F1
:00000001FF
